S01D00006465626F756E63655F657874696E746572727570742E7372656325
S11300000C942A000C9477000C943C000C943C0053
S11300100C943C000C943C000C943C000C943C006C
S11300200C943C000C9486000C943C000C943C0012
S11300300C943C000C943C000C943C000C943C004C
S11300400C943C000C943C000C943C000C943C003C
S11300500C943C0011241FBECFE5D4E0DEBFCDBF1D
S113006020E0A0E6B0E001C01D92A436B207E1F79B
S11300700E9456000C94BF000C940000F89481E098
S113008009C083B7846083BF89B7816089BF8EEF5D
S113009082BF80E08111F5CF789408958AB384609B
S11300A08ABB8BB383608BBB11BA08950E943E0058
S11300B00E944E008BB780648BBF85B7816085BF7B
S11300C07894109263001092600010926200809104
S11300D060008823E1F3829B04C08BB384608BBBF4
S11300E003C08BB38B7F8BBB10926000F0CF1F9249
S11300F00F920FB60F9211248F9381E080936200C8
S11301008F910F900FBE0F901F9018951F920F9212
S11301100FB60F9211242F933F934F935F936F93D6
S11301207F938F939F93AF93BF93EF93FF938091AC
S11301306200882329F0109263001092620005C0C7
S1130140809163008F5F80936300809163008A30A5
S113015019F481E0809360000E943E00FF91EF91CA
S1130160BF91AF919F918F917F916F915F914F91CB
S11301703F912F910F900FBE0F901F901895F894F8
S1050180FFCFAB
S9030000FC
