:020000020000FC
:0A004000C0F9A4B0999282F08090FC
:040000000C9400015B
:040024000C94000236
:04002C000C942E0101
:1002000044E04EBF4FE54DBF0FEF0ABB04BB0BBB35
:1002100005BB00EC0BB908E90AB906E800BD05E02A
:1002200009B941E049BF78944CEF42BF45E043BF74
:10023000F0E070E040E08EEF85BBB0E02E912A3018
:1002400029F02F70E0E4E20F64916BBB741711F09A
:100250000C9426010E9457010C942601B0E05F9B8C
:100260001DC02CB12CB1202F013412C0033440E04A
:100270000E94840107C00E3440E00E94840111C036
:100280000A3061F00CB10D30FBCF0E946A01189565
:100290000CB10435F7CF0E946A0118950E945D01E8
:1002A00018950CB10D3061F30E934395FACF6D9113
:1002B000703011F07A95FBCF08951FE40E94800101
:1002C0001BE40E9480011DE00E9480011AE00E9450
:1002D0008001089515E40E94800112E50E948001CA
:1002E00012E50E9480011FE40E94800112E50E9435
:1002F00080011DE00E9480011AE00E9480010895A3
:100300005D9BFECF14BD08950AE0B0E010E00E93AF
:0A0310001395183009F0FBCF089593
:100400000FEF0BBB05BB739587FB881F80F985BB7E
:100410002E912A3029F02F70E0E4E20F64916BBB3B
:060420008CEF82BF18956D
:00000001FF
