:100000000C942A000C943C000C943C000C943C0092
:100010000C943C000C943C000C943C000C943C0070
:100020000C943C000C9474000C943C000C943C0028
:100030000C943C000C943C000C943C000C943C0050
:100040000C943C000C943C000C943C000C943C0040
:100050000C943C0011241FBECFE5D4E0DEBFCDBF21
:1000600020E0A0E6B0E001C01D92A336B207E1F7A0
:100070000E945B000C94B1000C940000F89481E0A5
:1000800009C083B7846083BF89B7816089BF8EEF61
:1000900082BF80E08111F5CF789408958AB384609F
:1000A0008ABB8BB383608BBB089599B3892F817012
:1000B00090FD81E008950E943E000E944E007894D9
:1000C0001092620010926100809161008823E1F338
:1000D000C89B04C08BB384608BBB03C08BB38B7F86
:1000E0008BBB10926100F0CF1F920F920FB60F9250
:1000F00011242F933F934F935F936F937F938F932D
:100100009F93AF93BF93EF93FF930E9455009091FD
:100110006000891306C0809162008F5F8093620047
:1001200002C0109262000E9455008093600080918E
:100130006200843019F481E0809361000E943E00E7
:10014000FF91EF91BF91AF919F918F917F916F91AF
:100150005F914F913F912F910F900FBE0F901F9085
:060160001895F894FFCF92
:00000001FF
