:020000020000FC
:0A004000C0F9A4B0999282F08090FC
:040000000C9400015B
:040024000C94000236
:1002000044E04EBF4FE54DBF01E018E022E031E091
:1002100042E050E062E071E0A0E6B0E00D931D9393
:100220002D933D934D935D936D937D9300E010E08E
:1002300020E030E040E050E060E070E00FEF1FEFC2
:100240000ABB04BB0BBB15BB41E049BF789448E532
:1002500042BF45E043BFF0E00FEF0BBB15BB8EEF95
:1002600085BBB0E02E912F70E0E4E20F64916BBB90
:10027000773011F00C9438017D917D917D917D91C5
:0E0280007D917D917D917D9170E00C9438010F
:100400000FEF0BBB05BB739587FB881F80F985BB7E
:100410002E912F70E0E4E20F64916BBB48E542BF80
:0204200018952D
:00000001FF
