:100000000C942A000C9461000C9461000C94610023
:100010000C9461000C9461000C9461000C946100DC
:100020000C9461000C9436010C9461000C94EF0068
:100030000C9461000C9461000C9461000C946100BC
:100040000C9461000C9461000C9461000C946100AC
:100050000C94610011241FBECFE5D4E0DEBFCDBFFC
:1000600088E98AB986E880BD8BE089B904B603FCCB
:1000700003C0E1E9F0E006C080E690E00E94740071
:1000800005C0119280E0E939F807D8F314BE10E0FA
:10009000A0E6B0E0E6ECF3E002C005900D92A038D7
:1000A000B107D9F720E0A0E8B0E001C01D92A13966
:1000B000B207E1F781B58E6081BD0E9464010C94A6
:1000C000E1010C9400008FEF8ABB84BB8BBB85BB26
:1000D000089581E089BF85E083BF8EEF82BF0895D8
:1000E0005D9BFECF8CB90895CF93DF93EC0189918E
:1000F000882319F00E947000FACFDF91CF91089504
:10010000E1E9F0E085E4819390E0E939F907D9F776
:10011000089581E990E00E9474008AE690E00C94D2
:100120007400CF93DF93FC01F894DC011196C1E9D0
:10013000D0E091E08D918D3021F089939F5F9830D0
:10014000C9F7E90FF11D80818D3021F481E0218113
:100150002A3009F080E025E4983039F0E92FF0E00A
:10016000EF56FF4F20839F5FF7CF7894DF91CF91B9
:100170000895F89440918F005091900064E870E0E9
:100180000E94C90140918F005091900060E070E0A2
:1001900084E890E00E94D20178940895FC01908157
:1001A000933499F028F49134B1F488E690E015C0C6
:1001B000943429F09E3479F4CF010C94910088E6B0
:1001C00090E00E9474000C94890088E690E00E9400
:1001D00074000C9480008DE690E00C9474001F92E3
:1001E0000F920FB60F9211248F939F93EF93FF936B
:1001F00080918200909183000B9721F410928300EC
:1002000010928200E0918200F09183008CB1EC5753
:10021000FF4F8083A895E0918200F0918300EC5716
:10022000FF4F80818A3081F481E08093810080914A
:100230008200909183009093900080938F001092A1
:1002400083001092820009C0809182009091830007
:1002500001969093830080938200FF91EF919F918C
:100260008F910F900FBE0F901F9018951F920F92B5
:100270000FB60F9211242F933F938F939F938091EA
:1002800080008F5F8093800080918000883010F024
:10029000109280008FEF8BBB85BB3091800025B31F
:1002A00081E090E002C0880F991F3A95E2F78095AF
:1002B0009095822385BB9F918F913F912F910F90B5
:1002C0000FBE0F901F901895CF93DF93CDB7DEB779
:1002D0002B970FB6F894DEBF0FBECDBF0E94630010
:1002E0000E9469001092800078941FEF8091810035
:1002F000813051F4CE0101960E94B900CE010196E1
:100300000E94CE0010928100E0918000F0E0EF5654
:10031000FF4F8081853411F41BBBE8CFE091800052
:10032000F0E0EF56FF4F80818A3300F7E0918000C4
:10033000F0E0EF56FF4F80818033C0F28091800063
:1003400090E08F569F4F0E94AB018B589F4FFC014E
:1003500080818BBBCBCFFC0188279927E894219122
:100360002032E9F3293010F02E30C8F32B3241F05F
:100370002D3239F4689404C00E94D901820F911D76
:10038000219120532A30C0F31EF4909581959F4F00
:100390000895FB01DC0102C001900D9241505040D4
:1003A000D8F70895DC0101C06D9341505040E0F74B
:1003B00008957AE0979F902D879F802D910D1124AD
:0603C0000895F894FFCF40
:1003C60052455345540D0A004F4B0D0A00455252F3
:1003D6004F520D0A00C0F9A4B0999282F88090009D
:00000001FF
