S01300006D61747269785F6D756C742E737265635B
S11300000C942A000C943F000C943F000C943F0085
S11300100C943F000C943F000C943F000C943F0060
S11300200C943F000C943F000C943F000C943F0050
S11300300C943F000C943F000C943F000C943F0040
S11300400C943F000C943F000C943F000C943F0030
S11300500C943F0011241FBECFE5D4E0DEBFCDBF1A
S113006010E0A0E6B0E0E8E5F3E002C005900D92F0
S1130070AA39B107D9F70E94D4000C94AA010C94B0
S11300800000CF92DF92EF92FF920F931F93CF93D2
S1130090DF938C01C12C1CC08C2D90E0EC01CC0FA3
S11300A0DD1FC80FD91FCC0FDD1FC00FD11FED2CD2
S11300B0F12C0E943701EE0CFF1CCE0DDF1D99833D
S11300C08883D39401C0D12C82E08D1528F7C39482
S11300D082E08C15C0F7DF91CF911F910F91FF90B3
S11300E0EF90DF90CF900895CF92DF92FF920F931D
S11300F01F93CF93DF93F12C4CC02F2D30E0F901E7
S1130100EE0FFF1FE20FF31FEE0FFF1FE80FF91FA3
S11301102C2F30E08901000F111FE00FF11FC08068
S1130120D180200F311F220F331F260F371F0D2FB1
S113013010E0000F111F200F311FF9010081118100
S1130140C09E9001C19E300DD09E300D1124A20F8F
S1130150B31FCF5F03C0C0E0A0E0B0E0C33068F2DB
S11301602F2D30E0F901EE0FFF1F2E0F3F1F220F3E
S1130170331F240F351FED2FF0E0EE0FFF1FE20FAA
S1130180F31FB183A083DF5F01C0D0E0D33018F345
S1130190F394F2E0FF15C8F7DF91CF911F910F910F
S11301A0FF90DF90CF90089580E090E00E943C01A2
S11301B084E890E00E94410082E790E00E944100C0
S11301C040E650E062E770E084E890E00E9474004A
S11301D080E090E008958F929F92AF92BF92CF9269
S11301E0DF92EF92FF92CF93DF93EC0168817981E4
S11301F08A819B81611571058105910521F464E271
S113020079ED8BE597E02DE133EF41E050E00E947A
S1130210470149015A019B01AC01A7EAB1E40E94DC
S113022066016B017C01ACEEB4EFA50194010E9460
S11302307401DC01CB018C0D9D1DAE1DBF1DB7FFEC
S113024003C00197A109B04888839983AA83BB831B
S11302509F77DF91CF91FF90EF90DF90CF90BF9089
S1130260AF909F908F9008950E94EB00089586E9C7
S113027090E00E94EB000895A0E0B0E08093960027
S113028090939700A0939800B09399000895052E39
S113029097FB1EF400940E945E0157FD07D00E9454
S11302A0790107FC03D04EF40C945E0150954095FF
S11302B0309521953F4F4F4F5F4F0895909580950E
S11302C0709561957F4F8F4F9F4F08950E949B01BA
S11302D0A59F900DB49F900DA49F800D911D112496
S11302E00895B7FF0C9466010E946601821B930B6C
S11302F00895A1E21A2EAA1BBB1BFD010DC0AA1F63
S1130300BB1FEE1FFF1FA217B307E407F50720F07A
S1130310A21BB30BE40BF50B661F771F881F991FF5
S11303201A9469F760957095809590959B01AC013E
S1130330BD01CF010895A29FB001B39FC001A39F47
S1130340700D811D1124911DB29F700D811D11240A
S10B0350911D0895F894FFCFFC
S11303580000000000000000000000000000000091
S11303680000000000000000000000000000000081
S11303780000000000000000000000000000000071
S10D03880000000000000100000066
S9030000FC
