S018000073657269616C5F646973706C61795F632E7372656375
S11300000C942A000C9447000C9447000C9447006D
S11300100C9447000C9447000C9447000C94470040
S11300200C9447000C9466010C9447000C94F20065
S11300300C9447000C9447000C9447000C94470020
S11300400C9447000C9447000C9447000C94470010
S11300500C94470011241FBECFE5D4E0DEBFCDBF12
S113006010E0A0E6B0E0EEE6F3E002C005900D92E9
S1130070A837B107D9F720E0A8E7B0E001C01D9286
S1130080A138B207E1F70E94AD010C94B5010C94BC
S113009000008F70992708952FEF2BBF35B730FBE1
S11300A0331F37F935BF18958FEF8ABB84BB8BBBE1
S11300B08EEF85BB089581E089BF85E083BF8CEF17
S11300C082BF089588E98AB986E880BD8AE189B942
S11300D008955D9BFECF8CB90895EF92FF920F9324
S11300E01F93CF93DF9300D000D0CDB7DEB78091BC
S11300F0600090916100A0916200B09163008983D7
S11301009A83AB83BC838E010F5F1F4F7E0185E012
S1130110E80EF11CF80181918F010E9469000E150F
S11301201F05C1F70F900F900F900F90DF91CF91A3
S11301301F910F91FF90EF900895CF93DF93C0E04C
S1130140D0E0FE01E758FF4F80810E9469002196AC
S1130150C830D105B1F78DE00E9469008AE0DF91D3
S1130160CF910C946900EF92FF920F931F93CF935A
S1130170DF93CDB7DEB727970FB6F894DEBF0FBE77
S1130180CDBF87E0E5E6F0E0DE01119601900D9227
S11301908A95E1F78E010F5F1F4F7E0188E0E80E1C
S11301A0F11CF80181918F010E9469000E151F0551
S11301B0C1F727960FB6F894DEBF0FBECDBFDF910F
S11301C0CF911F910F91FF90EF90089580E090E000
S11301D025E4FC01E758FF4F208301968830910500
S11301E0C1F708951F920F920FB60F9211242F9307
S11301F03F934F935F936F937F938F939F93AF93AB
S1130200BF93EF93FF938CB1813479F0833419F465
S11302100E94E60012C08E34C1F0843419F40E94A6
S11302209D0002C00E94B30018955F9BFECF8CB165
S1130230843519F00E94B30018955F9BFECF8CB1F2
S11302408D3041F10E94B300189580E090E0282F92
S11302505F9BFECF3CB13D3051F485E42730D0F4B0
S1130260E22FF0E0E758FF4F80832F5FF7CF20EDB8
S1130270230F2A3060F48830910519F40E94E600B7
S113028006C0FC01E758FF4F30830196E0CF0E947F
S1130290B30018955F9BFECF8CB18A3019F40E948D
S11302A06D0002C00E94B3001895FF91EF91BF91B9
S11302B0AF919F918F917F916F915F914F913F91FA
S11302C02F910F900FBE0F901F9018951F920F92B1
S11302D00FB60F9211242F933F934F935F936F9315
S11302E07F938F939F93AF93BF93EF93FF930E945A
S11302F04C00E0917800F0E0E758FF4F80818534AE
S113030049F0E0917800F0E0E758FF4F80810E94C7
S1130310490001C08AE0E82FF0E0E359FF4F8081F3
S11303208BBB809178008F5F8093780080917800F8
S1130330883010F010927800FF91EF91BF91AF9147
S11303409F918F917F916F915F914F913F912F91E9
S11303500F900FBE0F901F9018950E9454000E949A
S111036062000E945B007894FFCFF894FFCFF8
S113036E4F4B0D0A004552524F520D0A00C0F9A4CC
S10B037EB0999282F88090FF0F
S9030000FC
