S015000073657269616C5F726F757465722E737265638F
S11300000C942A000C9461000C9461000C9461001F
S11300100C9461000C9461000C9461000C946100D8
S11300200C9402020C94C2010C9461000C947901AA
S11300300C9461000C9461000C9461000C946100B8
S11300400C9461000C9461000C9461000C946100A8
S11300500C94610011241FBECFE5D4E0DEBFCDBFF8
S113006088E98AB986E880BD8BE089B904B603FCC7
S113007003C0E2E9F0E006C080E690E00E947E0062
S113008005C0119280E0EB39F807D8F314BE10E0F4
S1130090A0E6B0E0EAECF5E002C005900D92A038CD
S11300A0B107D9F720E0A0E8B0E001C01D92A23961
S11300B0B207E1F781B58E6081BD0E9439020C94CC
S11300C0E3020C9400008FEF8ABB84BB8BBB85BB1F
S11300D0089581E089BF85E083BF8EEF82BF0895D4
S11300E084E089BF1FBC85E08EBD8EEF8DBD8DE899
S11300F08CBD08955D9BFECF8CB90895CF93DF939B
S1130100EC018991882319F00E947A00FACFDF91DB
S1130110CF910895E3E9F0E085E4819390E0EB3931
S1130120F907D9F70895CF93DF93FC01F894DC0124
S11301301196C3E9D0E091E08D918D3021F089933F
S11301409F5F9830C9F7E90FF11D80818D3021F44C
S113015081E021812A3009F080E025E4983039F0EB
S1130160E92FF0E0ED56FF4F20839F5FF7CF78949F
S1130170DF91CF910895F8944091900050919100AF
S113018065E870E00E94CB0240919000509191008C
S113019060E070E085E890E00E94D40278940895CD
S11301A01F93CF93DF939FE021E080E05FEFA7E010
S11301B0B0E0E1E0F0E011E0CFEFD1E12197F1F719
S11301C000005BBB4BB3222339F0BF01082E01C0F2
S11301D0660F0A94EAF70AC0BD01681B7109EF01B2
S11301E002C0CC0FDD1F6A95E2F7BE01362F3095B1
S11301F034233BBB8F5F883010F0212780E091507F
S1130200D9F6DF91CF911F9108958FEF8BBB8BB3FC
S1130210877E8BBB8EEF93E20197F1F700C000005D
S11302208BB38B7D8BBB8EEF93E20197F1F700C00C
S113023000008BB38D7B8BBB8EEF93E20197F1F7BC
S113024000C000008BB38E778BBB8EEF93E20197D7
S1130250F1F700C000000895813321F480919200E9
S113026080680BC0823321F480919200806405C0C1
S1130270833329F4809192008062809392000895E0
S1130280813321F4809192008F770BC0823321F463
S1130290809192008F7B05C0833329F48091920072
S11302A08F7D809392000895FC0190819E3499F093
S11302B050F49134B9F09334C1F488E690E00E948C
S11302C07E000C948A00913551F0933571F481814C
S11302D00E942C0107C0CF010E94930003C08181BA
S11302E00E94400188E690E002C08DE690E00C9404
S11302F07E001F920F920FB60F9211248F939F933B
S1130300EF93FF93F89480918300909184000B976E
S113031021F41092840010928300E0918300F09104
S113032084008CB1EB57FF4F8083A895E091830044
S1130330F0918400EB57FF4F80818A3081F481E093
S11303408093820080918300909184009093910027
S113035080939000109284001092830009C08091D1
S1130360830090918400019690938400809383008D
S11303707894FF91EF919F918F910F900FBE0F9002
S11303801F9018951F920F920FB60F9211242F935E
S11303903F934F935F936F937F938F939F93AF9309
S11303A0BF93EF93FF93809180008F5F80938000D1
S11303B080918000883010F0109280008FEF8BBB0A
S11303C085BB3091800025B381E090E002C0880FA6
S11303D0991F3A95E2F780959095822385BB0E94F8
S11303E06900FF91EF91BF91AF919F918F917F91A0
S11303F06F915F914F913F912F910F900FBE0F908E
S11304001F9018951F920F920FB60F9211242F93DD
S11304103F934F935F936F937F938F939F93AF9388
S1130420BF93EF93FF938091920084FF03C08F7E6C
S1130430886009C083FF03C0877E846005C082FF93
S113044005C08061877F8B7F809392000E9470003B
S1130450FF91EF91BF91AF919F918F917F916F9198
S11304605F914F913F912F910F900FBE0F901F906E
S11304701895CF93DF93CDB7DEB72B970FB6F894CB
S1130480DEBF0FBECDBF0E9463000E9469000E94C0
S11304907000109280007894809192008061809323
S11304A092001FEF8091920084FF0AC0A89587FFF5
S11304B004C01BBB0E94D00040C08F7E88603BC03C
S11304C083FF2EC0A89586FF28C01BBBE091800047
S11304D0F0E0ED56FF4F8081853411F41BBB2DC035
S11304E0E0918000F0E0ED56FF4F80818A3328F5DB
S11304F0E0918000F0E0ED56FF4F80818033E8F01A
S11305008091800090E08D569F4F0E94AD028B58E1
S11305109F4FFC0180818BBB10C0877F84600BC020
S113052082FF0BC0A89585FF04C01BBB0E94050178
S113053004C08B7F8061809392008091820081301F
S113054009F0B0CFCE0101960E94BB00CE01019606
S11305500E94540110928200A5CFFC01882799279C
S1130560E89421912032E9F3293010F02E30C8F3B9
S11305702B3241F02D3239F4689404C00E94DB021E
S1130580820F911D219120532A30C0F31EF49095BF
S113059081959F4F0895FB01DC0102C001900D92EB
S11305A041505040D8F70895DC0101C06D9341508B
S11305B05040E0F708957AE0979F902D879F802D13
S10D05C0910D11240895F894FFCF63
S11305CA52455345540D0A004F4B0D0A00455252E9
S11305DA4F520D0A00C0F9A4B0999282F880900093
S9030000FC
