:020000020000FC
:0A004000C0F9A4B0999282F08090FC
:040000000C9400015B
:040024000C94000236
:04002C000C942E0101
:1002000044E04EBF4FE54DBF0FEF0ABB04BB0BBB35
:1002100005BB00EC0BB908E90AB906E800BD05E02A
:1002200009B941E049BF78944CEF42BF45E043BF74
:10023000F0E070E040E08EEF85BBB0E02E912A3018
:1002400029F02F70E0E4E20F64916BBB741711F09A
:100250000C9426010E9458010C942601B0E0A0E6FF
:100260005F9B1BC02CB1013412C0033440E00E94DC
:10027000970107C00E3440E00E94970111C00A3078
:1002800061F00CB10D30FBCF0E947D0118950CB1CF
:100290000435F7CF0E947D0118950E9470011895D2
:1002A0000CB10D3061F30D9343950E946001F8CFBE
:1002B000B0E0A0E66D91703011F07A95FBCF089513
:1002C000B0E0A0E668E00D91641B6A956A95603025
:1002D00019F01D916A95FDCF0D93B0E0A0E6089549
:1002E0001FE40E9493011BE40E9493011DE00E9401
:1002F00093011AE00E949301089515E40E9493016E
:1003000012E50E94930112E50E9493011FE40E94EE
:10031000930112E50E9493011DE00E9493011AE0EF
:100320000E94930108955D9BFECF1CB908950FEFC5
:100330000BBB05BBB0E0A0E610E00D9313951830A1
:0603400009F0FBCF089557
:100400000FEF0BBB05BB739587FB881F80F985BB7E
:100410002E912A3029F02F70E0E4E20F64916BBB3B
:060420008CEF82BF18956D
:00000001FF
