S010000073657269616C5F632E73726563D2
S11300000C942A000C9447000C9447000C9447006D
S11300100C9447000C9447000C9447000C94470040
S11300200C9447000C944F010C9447000C94CC00A2
S11300300C9447000C9447000C9447000C94470020
S11300400C9447000C9447000C9447000C94470010
S11300500C94470011241FBECFE5D4E0DEBFCDBF12
S113006010E0A0E6B0E0E4ECF3E002C005900D92ED
S1130070AA37B107D9F720E0AAE7B0E001C01D9282
S1130080AB37B207E1F70E947D010C94E0010C94B8
S113009000008FEF8ABB84BB8BBB85BB089581E0D6
S11300A089BF85E083BF8EEF82BF089588E98AB94E
S11300B086E880BD8FE589B908955D9BFECF8CB934
S11300C00895CF93DF93EC018881882331F0219642
S11300D00E945D0089918111FBCFDF91CF9108953A
S11300E080E090E025E4E0916000F0916100E80F89
S11300F0F91F2083019688309105A9F7089580910E
S11301006000909161000E94610084E690E00E948A
S113011061000895CF93DF93C0E0D0E08C2F5F9B04
S1130120FECF6CB1C830D10521F48830A8F081E04D
S113013021C06D30D1F380ED860F8A30D0F470E0A9
S1130140E0916000F0916100EC0FFD1F808190E070
S11301500E94D1012196E2CF95E4E0916000F091F4
S11301606100E80FF11D90838F5F8830B1F781E063
S113017001C080E0DF91CF9108955F9BFECF8CB1E9
S11301808D3041F45F9BFECF9CB181E09A3019F031
S113019080E0089580E008951F920F920FB60F92A9
S11301A011242F933F934F935F936F937F938F9378
S11301B09F93AF93BF93EF93FF938CB1833431F14B
S11301C018F4813439F055C0843499F18E3409F42B
S11301D03FC04FC05F9BFECF8CB1843581F40E9439
S11301E0BD00882331F082E690E00E9461001895FA
S11301F00BC087E690E00E946100189505C087E671
S113020090E00E9461001895189538C00E94BD00C6
S1130210882341F00E94700082E690E00E94610011
S1130220189505C087E690E00E946100189518951E
S113023025C00E94BD00882321F00E947F001895EC
S113024005C087E690E00E9461001895189516C0D5
S11302500E948A00882331F082E690E00E946100C7
S1130260189505C087E690E00E94610018951895DE
S113027005C087E690E00E9461001895FF91EF9118
S1130280BF91AF919F918F917F916F915F914F91AA
S11302903F912F910F900FBE0F901F9018951F92B2
S11302A00F920FB60F9211242F933F938F939F9326
S11302B080917A008F5F80937A0080917A008830F1
S11302C010F010927A008FEF8BBB85BB30917A00CF
S11302D025B381E090E002C0880F991F3A95E2F7B8
S11302E080959095822385BB9F918F913F912F910B
S11302F00F900FBE0F901F9018950E9449000E9406
S113030070000E9456000E944F0010927A00789468
S1130310CFEF809160009091610020917A00FC0100
S1130320E20FF11D2081253411F4CBBBF2CF2091D3
S11303307A00FC01E20FF11D20812A3350F720914D
S11303407A00FC01E20FF11D2081203310F320918B
S11303507A00820F911D0E94B30181599F4FFC01C5
S113036080818BBBD6CFFC0188279927E894219103
S11303702032E9F3293010F02E30C8F32B3241F04B
S11303802D3239F4689404C00E94D801820F911D63
S1130390219120532A30C0F31EF4909581959F4FEC
S11303A00895FB01DC0101900D920020E1F708950E
S11303B07AE0979F902D879F802D910D11240895A9
S10703C0F894FFCFDB
S11303C46B004F4B0D0A004552524F520D0A00C0A8
S10D03D4F9A4B0999282F880900019
S9030000FC
